{
  "_format": "hh-sol-artifact-1",
  "contractName": "SWFContract",
  "sourceName": "contracts/SWFContract.sol",
  "abi": [
    {
      "inputs": [
        {
          "internalType": "address",
          "name": "_implementation",
          "type": "address"
        }
      ],
      "stateMutability": "nonpayable",
      "type": "constructor"
    },
    {
      "anonymous": false,
      "inputs": [
        {
          "indexed": true,
          "internalType": "address",
          "name": "hospital",
          "type": "address"
        }
      ],
      "name": "NewHospital",
      "type": "event"
    },
    {
      "anonymous": false,
      "inputs": [
        {
          "indexed": true,
          "internalType": "address",
          "name": "previousOwner",
          "type": "address"
        },
        {
          "indexed": true,
          "internalType": "address",
          "name": "newOwner",
          "type": "address"
        }
      ],
      "name": "OwnershipTransferred",
      "type": "event"
    },
    {
      "inputs": [
        {
          "internalType": "address",
          "name": "hospital",
          "type": "address"
        }
      ],
      "name": "addEmergency",
      "outputs": [],
      "stateMutability": "nonpayable",
      "type": "function"
    },
    {
      "inputs": [],
      "name": "allHospital",
      "outputs": [
        {
          "internalType": "address[]",
          "name": "",
          "type": "address[]"
        }
      ],
      "stateMutability": "view",
      "type": "function"
    },
    {
      "inputs": [],
      "name": "allHospitalData",
      "outputs": [
        {
          "components": [
            {
              "internalType": "uint8",
              "name": "_bedCount",
              "type": "uint8"
            },
            {
              "internalType": "uint8",
              "name": "_currentBedCount",
              "type": "uint8"
            },
            {
              "internalType": "enum IHospital.Symptoms[]",
              "name": "_impossiblePatient",
              "type": "uint8[]"
            }
          ],
          "internalType": "struct IHospital.Status[]",
          "name": "",
          "type": "tuple[]"
        }
      ],
      "stateMutability": "view",
      "type": "function"
    },
    {
      "inputs": [
        {
          "internalType": "address",
          "name": "_implementation",
          "type": "address"
        }
      ],
      "name": "changeImplementationContract",
      "outputs": [],
      "stateMutability": "nonpayable",
      "type": "function"
    },
    {
      "inputs": [
        {
          "internalType": "uint8",
          "name": "bedCount",
          "type": "uint8"
        }
      ],
      "name": "createNewHospital",
      "outputs": [
        {
          "internalType": "address",
          "name": "instance",
          "type": "address"
        }
      ],
      "stateMutability": "nonpayable",
      "type": "function"
    },
    {
      "inputs": [
        {
          "internalType": "uint256",
          "name": "",
          "type": "uint256"
        }
      ],
      "name": "emergency",
      "outputs": [
        {
          "internalType": "address",
          "name": "",
          "type": "address"
        }
      ],
      "stateMutability": "view",
      "type": "function"
    },
    {
      "inputs": [
        {
          "internalType": "address[]",
          "name": "nearHospitals",
          "type": "address[]"
        }
      ],
      "name": "getHospitalData",
      "outputs": [],
      "stateMutability": "view",
      "type": "function"
    },
    {
      "inputs": [
        {
          "internalType": "uint256",
          "name": "",
          "type": "uint256"
        }
      ],
      "name": "hospitals",
      "outputs": [
        {
          "internalType": "address",
          "name": "",
          "type": "address"
        }
      ],
      "stateMutability": "view",
      "type": "function"
    },
    {
      "inputs": [],
      "name": "owner",
      "outputs": [
        {
          "internalType": "address",
          "name": "",
          "type": "address"
        }
      ],
      "stateMutability": "view",
      "type": "function"
    },
    {
      "inputs": [],
      "name": "renounceOwnership",
      "outputs": [],
      "stateMutability": "nonpayable",
      "type": "function"
    },
    {
      "inputs": [
        {
          "internalType": "address",
          "name": "newOwner",
          "type": "address"
        }
      ],
      "name": "transferOwnership",
      "outputs": [],
      "stateMutability": "nonpayable",
      "type": "function"
    }
  ],
  "bytecode": "0x60806040523480156200001157600080fd5b5060405162001843380380620018438339818101604052810190620000379190620001d5565b620000576200004b6200009f60201b60201c565b620000a760201b60201c565b80600260006101000a81548173ffffffffffffffffffffffffffffffffffffffff021916908373ffffffffffffffffffffffffffffffffffffffff1602179055505062000207565b600033905090565b60008060009054906101000a900473ffffffffffffffffffffffffffffffffffffffff169050816000806101000a81548173ffffffffffffffffffffffffffffffffffffffff021916908373ffffffffffffffffffffffffffffffffffffffff1602179055508173ffffffffffffffffffffffffffffffffffffffff168173ffffffffffffffffffffffffffffffffffffffff167f8be0079c531659141344cd1fd0a4f28419497f9722a3daafe3b4186f6b6457e060405160405180910390a35050565b600080fd5b600073ffffffffffffffffffffffffffffffffffffffff82169050919050565b60006200019d8262000170565b9050919050565b620001af8162000190565b8114620001bb57600080fd5b50565b600081519050620001cf81620001a4565b92915050565b600060208284031215620001ee57620001ed6200016b565b5b6000620001fe84828501620001be565b91505092915050565b61162c80620002176000396000f3fe608060405234801561001057600080fd5b50600436106100a95760003560e01c80638da5cb5b116100715780638da5cb5b14610152578063acf934f514610170578063cf6644991461018c578063cf9b00c6146101aa578063e5c30120146101c6578063f2fde38b146101f6576100a9565b80632b3d6a6e146100ae5780634fb1b040146100cc578063715018a6146100fc5780637e434ca61461010657806381dc6fd214610122575b600080fd5b6100b6610212565b6040516100c39190610d1c565b60405180910390f35b6100e660048036038101906100e19190610d7e565b610373565b6040516100f39190610dec565b60405180910390f35b610104610559565b005b610120600480360381019061011b9190610e33565b61056d565b005b61013c60048036038101906101379190610e96565b6105db565b6040516101499190610dec565b60405180910390f35b61015a61061a565b6040516101679190610dec565b60405180910390f35b61018a6004803603810190610185919061101c565b610643565b005b610194610701565b6040516101a19190611123565b60405180910390f35b6101c460048036038101906101bf9190610e33565b61078f565b005b6101e060048036038101906101db9190610e96565b6107db565b6040516101ed9190610dec565b60405180910390f35b610210600480360381019061020b9190610e33565b61081a565b005b60606000600180549050905060008167ffffffffffffffff81111561023a57610239610ed9565b5b60405190808252806020026020018201604052801561027357816020015b610260610aa1565b8152602001906001900390816102585790505b50905060005b8281101561036a5760006001828154811061029757610296611145565b5b9060005260206000200160009054906101000a900473ffffffffffffffffffffffffffffffffffffffff1690508073ffffffffffffffffffffffffffffffffffffffff16634e69d5606040518163ffffffff1660e01b8152600401600060405180830381865afa15801561030f573d6000803e3d6000fd5b505050506040513d6000823e3d601f19601f8201168201806040525081019061033891906112fb565b83838151811061034b5761034a611145565b5b602002602001018190525050808061036290611373565b915050610279565b50809250505090565b600061037d61089d565b6103a8600260009054906101000a900473ffffffffffffffffffffffffffffffffffffffff1661091b565b905060008173ffffffffffffffffffffffffffffffffffffffff1633846040516024016103d69291906113ca565b6040516020818303038152906040527fc0c53b8b000000000000000000000000000000000000000000000000000000007bffffffffffffffffffffffffffffffffffffffffffffffffffffffff19166020820180517bffffffffffffffffffffffffffffffffffffffffffffffffffffffff83818316178352505050506040516104609190611464565b6000604051808303816000865af19150503d806000811461049d576040519150601f19603f3d011682016040523d82523d6000602084013e6104a2565b606091505b505090508015610553576001829080600181540180825580915050600190039060005260206000200160009091909190916101000a81548173ffffffffffffffffffffffffffffffffffffffff021916908373ffffffffffffffffffffffffffffffffffffffff1602179055508173ffffffffffffffffffffffffffffffffffffffff167f0729ca632fb73225299edbf4af7a8dd154b9c905e1f4a9295e7a649b1f97b5f160405160405180910390a25b50919050565b61056161089d565b61056b60006109d5565b565b61057561089d565b6003819080600181540180825580915050600190039060005260206000200160009091909190916101000a81548173ffffffffffffffffffffffffffffffffffffffff021916908373ffffffffffffffffffffffffffffffffffffffff16021790555050565b600181815481106105eb57600080fd5b906000526020600020016000915054906101000a900473ffffffffffffffffffffffffffffffffffffffff1681565b60008060009054906101000a900473ffffffffffffffffffffffffffffffffffffffff16905090565b60008151905060005b818110156106fc57600083828151811061066957610668611145565b5b602002602001015190508073ffffffffffffffffffffffffffffffffffffffff16634e69d5606040518163ffffffff1660e01b8152600401600060405180830381865afa1580156106be573d6000803e3d6000fd5b505050506040513d6000823e3d601f19601f820116820180604052508101906106e791906112fb565b505080806106f490611373565b91505061064c565b505050565b6060600180548060200260200160405190810160405280929190818152602001828054801561078557602002820191906000526020600020905b8160009054906101000a900473ffffffffffffffffffffffffffffffffffffffff1673ffffffffffffffffffffffffffffffffffffffff168152602001906001019080831161073b575b5050505050905090565b61079761089d565b80600260006101000a81548173ffffffffffffffffffffffffffffffffffffffff021916908373ffffffffffffffffffffffffffffffffffffffff16021790555050565b600381815481106107eb57600080fd5b906000526020600020016000915054906101000a900473ffffffffffffffffffffffffffffffffffffffff1681565b61082261089d565b600073ffffffffffffffffffffffffffffffffffffffff168173ffffffffffffffffffffffffffffffffffffffff1603610891576040517f08c379a0000000000000000000000000000000000000000000000000000000008152600401610888906114fe565b60405180910390fd5b61089a816109d5565b50565b6108a5610a99565b73ffffffffffffffffffffffffffffffffffffffff166108c361061a565b73ffffffffffffffffffffffffffffffffffffffff1614610919576040517f08c379a00000000000000000000000000000000000000000000000000000000081526004016109109061156a565b60405180910390fd5b565b6000763d602d80600a3d3981f3363d3d373d3d3d363d730000008260601b60e81c176000526e5af43d82803e903d91602b57fd5bf38260781b17602052603760096000f09050600073ffffffffffffffffffffffffffffffffffffffff168173ffffffffffffffffffffffffffffffffffffffff16036109d0576040517f08c379a00000000000000000000000000000000000000000000000000000000081526004016109c7906115d6565b60405180910390fd5b919050565b60008060009054906101000a900473ffffffffffffffffffffffffffffffffffffffff169050816000806101000a81548173ffffffffffffffffffffffffffffffffffffffff021916908373ffffffffffffffffffffffffffffffffffffffff1602179055508173ffffffffffffffffffffffffffffffffffffffff168173ffffffffffffffffffffffffffffffffffffffff167f8be0079c531659141344cd1fd0a4f28419497f9722a3daafe3b4186f6b6457e060405160405180910390a35050565b600033905090565b6040518060600160405280600060ff168152602001600060ff168152602001606081525090565b600081519050919050565b600082825260208201905092915050565b6000819050602082019050919050565b600060ff82169050919050565b610b0a81610af4565b82525050565b600081519050919050565b600082825260208201905092915050565b6000819050602082019050919050565b7f4e487b7100000000000000000000000000000000000000000000000000000000600052602160045260246000fd5b600a8110610b7c57610b7b610b3c565b5b50565b6000819050610b8d82610b6b565b919050565b6000610b9d82610b7f565b9050919050565b610bad81610b92565b82525050565b6000610bbf8383610ba4565b60208301905092915050565b6000602082019050919050565b6000610be382610b10565b610bed8185610b1b565b9350610bf883610b2c565b8060005b83811015610c29578151610c108882610bb3565b9750610c1b83610bcb565b925050600181019050610bfc565b5085935050505092915050565b6000606083016000830151610c4e6000860182610b01565b506020830151610c616020860182610b01565b5060408301518482036040860152610c798282610bd8565b9150508091505092915050565b6000610c928383610c36565b905092915050565b6000602082019050919050565b6000610cb282610ac8565b610cbc8185610ad3565b935083602082028501610cce85610ae4565b8060005b85811015610d0a5784840389528151610ceb8582610c86565b9450610cf683610c9a565b925060208a01995050600181019050610cd2565b50829750879550505050505092915050565b60006020820190508181036000830152610d368184610ca7565b905092915050565b6000604051905090565b600080fd5b600080fd5b610d5b81610af4565b8114610d6657600080fd5b50565b600081359050610d7881610d52565b92915050565b600060208284031215610d9457610d93610d48565b5b6000610da284828501610d69565b91505092915050565b600073ffffffffffffffffffffffffffffffffffffffff82169050919050565b6000610dd682610dab565b9050919050565b610de681610dcb565b82525050565b6000602082019050610e016000830184610ddd565b92915050565b610e1081610dcb565b8114610e1b57600080fd5b50565b600081359050610e2d81610e07565b92915050565b600060208284031215610e4957610e48610d48565b5b6000610e5784828501610e1e565b91505092915050565b6000819050919050565b610e7381610e60565b8114610e7e57600080fd5b50565b600081359050610e9081610e6a565b92915050565b600060208284031215610eac57610eab610d48565b5b6000610eba84828501610e81565b91505092915050565b600080fd5b6000601f19601f8301169050919050565b7f4e487b7100000000000000000000000000000000000000000000000000000000600052604160045260246000fd5b610f1182610ec8565b810181811067ffffffffffffffff82111715610f3057610f2f610ed9565b5b80604052505050565b6000610f43610d3e565b9050610f4f8282610f08565b919050565b600067ffffffffffffffff821115610f6f57610f6e610ed9565b5b602082029050602081019050919050565b600080fd5b6000610f98610f9384610f54565b610f39565b90508083825260208201905060208402830185811115610fbb57610fba610f80565b5b835b81811015610fe45780610fd08882610e1e565b845260208401935050602081019050610fbd565b5050509392505050565b600082601f83011261100357611002610ec3565b5b8135611013848260208601610f85565b91505092915050565b60006020828403121561103257611031610d48565b5b600082013567ffffffffffffffff8111156110505761104f610d4d565b5b61105c84828501610fee565b91505092915050565b600081519050919050565b600082825260208201905092915050565b6000819050602082019050919050565b61109a81610dcb565b82525050565b60006110ac8383611091565b60208301905092915050565b6000602082019050919050565b60006110d082611065565b6110da8185611070565b93506110e583611081565b8060005b838110156111165781516110fd88826110a0565b9750611108836110b8565b9250506001810190506110e9565b5085935050505092915050565b6000602082019050818103600083015261113d81846110c5565b905092915050565b7f4e487b7100000000000000000000000000000000000000000000000000000000600052603260045260246000fd5b600080fd5b600080fd5b60008151905061118d81610d52565b92915050565b600067ffffffffffffffff8211156111ae576111ad610ed9565b5b602082029050602081019050919050565b600a81106111cc57600080fd5b50565b6000815190506111de816111bf565b92915050565b60006111f76111f284611193565b610f39565b9050808382526020820190506020840283018581111561121a57611219610f80565b5b835b81811015611243578061122f88826111cf565b84526020840193505060208101905061121c565b5050509392505050565b600082601f83011261126257611261610ec3565b5b81516112728482602086016111e4565b91505092915050565b60006060828403121561129157611290611174565b5b61129b6060610f39565b905060006112ab8482850161117e565b60008301525060206112bf8482850161117e565b602083015250604082015167ffffffffffffffff8111156112e3576112e2611179565b5b6112ef8482850161124d565b60408301525092915050565b60006020828403121561131157611310610d48565b5b600082015167ffffffffffffffff81111561132f5761132e610d4d565b5b61133b8482850161127b565b91505092915050565b7f4e487b7100000000000000000000000000000000000000000000000000000000600052601160045260246000fd5b600061137e82610e60565b91507fffffffffffffffffffffffffffffffffffffffffffffffffffffffffffffffff82036113b0576113af611344565b5b600182019050919050565b6113c481610af4565b82525050565b60006040820190506113df6000830185610ddd565b6113ec60208301846113bb565b9392505050565b600081519050919050565b600081905092915050565b60005b8381101561142757808201518184015260208101905061140c565b60008484015250505050565b600061143e826113f3565b61144881856113fe565b9350611458818560208601611409565b80840191505092915050565b60006114708284611433565b915081905092915050565b600082825260208201905092915050565b7f4f776e61626c653a206e6577206f776e657220697320746865207a65726f206160008201527f6464726573730000000000000000000000000000000000000000000000000000602082015250565b60006114e860268361147b565b91506114f38261148c565b604082019050919050565b60006020820190508181036000830152611517816114db565b9050919050565b7f4f776e61626c653a2063616c6c6572206973206e6f7420746865206f776e6572600082015250565b600061155460208361147b565b915061155f8261151e565b602082019050919050565b6000602082019050818103600083015261158381611547565b9050919050565b7f455243313136373a20637265617465206661696c656400000000000000000000600082015250565b60006115c060168361147b565b91506115cb8261158a565b602082019050919050565b600060208201905081810360008301526115ef816115b3565b905091905056fea26469706673582212208c97c9e345e39222fc3fb7aa4b63f1a232bbc2fc088a499ae715433ca948b42c64736f6c63430008110033",
  "linkReferences": {},
  "deployedLinkReferences": {}
}