{
  "_format": "hh-sol-artifact-1",
  "contractName": "Hospital",
  "sourceName": "contracts/SWFHospital.sol",
  "abi": [
    {
      "anonymous": false,
      "inputs": [
        {
          "indexed": false,
          "internalType": "uint8",
          "name": "version",
          "type": "uint8"
        }
      ],
      "name": "Initialized",
      "type": "event"
    },
    {
      "anonymous": false,
      "inputs": [
        {
          "indexed": true,
          "internalType": "address",
          "name": "previousOwner",
          "type": "address"
        },
        {
          "indexed": true,
          "internalType": "address",
          "name": "newOwner",
          "type": "address"
        }
      ],
      "name": "OwnershipTransferred",
      "type": "event"
    },
    {
      "anonymous": false,
      "inputs": [],
      "name": "SetHospitalData",
      "type": "event"
    },
    {
      "inputs": [],
      "name": "getStatus",
      "outputs": [
        {
          "components": [
            {
              "internalType": "uint8",
              "name": "_bedCount",
              "type": "uint8"
            },
            {
              "internalType": "uint8",
              "name": "_currentBedCount",
              "type": "uint8"
            },
            {
              "internalType": "enum IHospital.Symptoms[]",
              "name": "_impossiblePatient",
              "type": "uint8[]"
            }
          ],
          "internalType": "struct IHospital.Status",
          "name": "",
          "type": "tuple"
        }
      ],
      "stateMutability": "view",
      "type": "function"
    },
    {
      "inputs": [
        {
          "internalType": "address",
          "name": "_owner",
          "type": "address"
        },
        {
          "internalType": "uint8",
          "name": "bedCount",
          "type": "uint8"
        }
      ],
      "name": "initialize",
      "outputs": [],
      "stateMutability": "payable",
      "type": "function"
    },
    {
      "inputs": [],
      "name": "owner",
      "outputs": [
        {
          "internalType": "address",
          "name": "",
          "type": "address"
        }
      ],
      "stateMutability": "view",
      "type": "function"
    },
    {
      "inputs": [],
      "name": "renounceOwnership",
      "outputs": [],
      "stateMutability": "nonpayable",
      "type": "function"
    },
    {
      "inputs": [
        {
          "internalType": "uint8",
          "name": "bedCount",
          "type": "uint8"
        }
      ],
      "name": "setCount",
      "outputs": [],
      "stateMutability": "nonpayable",
      "type": "function"
    },
    {
      "inputs": [
        {
          "internalType": "uint8",
          "name": "currentBedCount",
          "type": "uint8"
        },
        {
          "internalType": "enum IHospital.Symptoms[]",
          "name": "impossibleSymptoms",
          "type": "uint8[]"
        }
      ],
      "name": "setHospitalData",
      "outputs": [],
      "stateMutability": "nonpayable",
      "type": "function"
    },
    {
      "inputs": [
        {
          "internalType": "address",
          "name": "newOwner",
          "type": "address"
        }
      ],
      "name": "transferOwnership",
      "outputs": [],
      "stateMutability": "nonpayable",
      "type": "function"
    }
  ],
  "bytecode": "0x608060405234801561001057600080fd5b5061002d61002261003260201b60201c565b61003a60201b60201c565b6100ff565b600033905090565b60008060029054906101000a900473ffffffffffffffffffffffffffffffffffffffff16905081600060026101000a81548173ffffffffffffffffffffffffffffffffffffffff021916908373ffffffffffffffffffffffffffffffffffffffff1602179055508173ffffffffffffffffffffffffffffffffffffffff168173ffffffffffffffffffffffffffffffffffffffff167f8be0079c531659141344cd1fd0a4f28419497f9722a3daafe3b4186f6b6457e060405160405180910390a35050565b610ebc8061010e6000396000f3fe6080604052600436106100705760003560e01c8063943b24b21161004e578063943b24b2146100e25780639836d30e146100fe578063b389da7614610127578063f2fde38b1461015057610070565b80634e69d56014610075578063715018a6146100a05780638da5cb5b146100b7575b600080fd5b34801561008157600080fd5b5061008a610179565b6040516100979190610927565b60405180910390f35b3480156100ac57600080fd5b506100b561025a565b005b3480156100c357600080fd5b506100cc61026e565b6040516100d9919061098a565b60405180910390f35b6100fc60048036038101906100f79190610a11565b610297565b005b34801561010a57600080fd5b5061012560048036038101906101209190610bcf565b6103ed565b005b34801561013357600080fd5b5061014e60048036038101906101499190610c2b565b610454565b005b34801561015c57600080fd5b5061017760048036038101906101729190610c58565b610472565b005b61018161069b565b60016040518060600160405290816000820160009054906101000a900460ff1660ff1660ff1681526020016000820160019054906101000a900460ff1660ff1660ff1681526020016001820180548060200260200160405190810160405280929190818152602001828054801561024c57602002820191906000526020600020906000905b82829054906101000a900460ff166009811115610226576102256107dd565b5b815260200190600101906020826000010492830192600103820291508084116102065790505b505050505081525050905090565b6102626104f5565b61026c6000610573565b565b60008060029054906101000a900473ffffffffffffffffffffffffffffffffffffffff16905090565b60008060019054906101000a900460ff161590508080156102c85750600160008054906101000a900460ff1660ff16105b806102f557506102d730610638565b1580156102f45750600160008054906101000a900460ff1660ff16145b5b610334576040517f08c379a000000000000000000000000000000000000000000000000000000000815260040161032b90610d08565b60405180910390fd5b60016000806101000a81548160ff021916908360ff1602179055508015610371576001600060016101000a81548160ff0219169083151502179055505b81600360006101000a81548160ff021916908360ff16021790555033925080156103e85760008060016101000a81548160ff0219169083151502179055507f7f26b83ff96e1f2b6a682f133852f6798a09c465da95921460cefb384740249860016040516103df9190610d6d565b60405180910390a15b505050565b6103f56104f5565b600360019054906101000a900460ff1660ff168260ff161461041b5761041a8261065b565b5b61042481610679565b7fdbe71c0077503b452d3f69f348f86357699a80d75f1c9a06af40f9846da6eae260405160405180910390a15050565b80600360006101000a81548160ff021916908360ff16021790555050565b61047a6104f5565b600073ffffffffffffffffffffffffffffffffffffffff168173ffffffffffffffffffffffffffffffffffffffff16036104e9576040517f08c379a00000000000000000000000000000000000000000000000000000000081526004016104e090610dfa565b60405180910390fd5b6104f281610573565b50565b6104fd610693565b73ffffffffffffffffffffffffffffffffffffffff1661051b61026e565b73ffffffffffffffffffffffffffffffffffffffff1614610571576040517f08c379a000000000000000000000000000000000000000000000000000000000815260040161056890610e66565b60405180910390fd5b565b60008060029054906101000a900473ffffffffffffffffffffffffffffffffffffffff16905081600060026101000a81548173ffffffffffffffffffffffffffffffffffffffff021916908373ffffffffffffffffffffffffffffffffffffffff1602179055508173ffffffffffffffffffffffffffffffffffffffff168173ffffffffffffffffffffffffffffffffffffffff167f8be0079c531659141344cd1fd0a4f28419497f9722a3daafe3b4186f6b6457e060405160405180910390a35050565b6000808273ffffffffffffffffffffffffffffffffffffffff163b119050919050565b80600360016101000a81548160ff021916908360ff16021790555050565b806004908051906020019061068f9291906106c2565b5050565b600033905090565b6040518060600160405280600060ff168152602001600060ff168152602001606081525090565b82805482825590600052602060002090601f016020900481019282156107675791602002820160005b8382111561073857835183826101000a81548160ff02191690836009811115610717576107166107dd565b5b021790555092602001926001016020816000010492830192600103026106eb565b80156107655782816101000a81549060ff0219169055600101602081600001049283019260010302610738565b505b5090506107749190610778565b5090565b5b80821115610791576000816000905550600101610779565b5090565b600060ff82169050919050565b6107ab81610795565b82525050565b600081519050919050565b600082825260208201905092915050565b6000819050602082019050919050565b7f4e487b7100000000000000000000000000000000000000000000000000000000600052602160045260246000fd5b600a811061081d5761081c6107dd565b5b50565b600081905061082e8261080c565b919050565b600061083e82610820565b9050919050565b61084e81610833565b82525050565b60006108608383610845565b60208301905092915050565b6000602082019050919050565b6000610884826107b1565b61088e81856107bc565b9350610899836107cd565b8060005b838110156108ca5781516108b18882610854565b97506108bc8361086c565b92505060018101905061089d565b5085935050505092915050565b60006060830160008301516108ef60008601826107a2565b50602083015161090260208601826107a2565b506040830151848203604086015261091a8282610879565b9150508091505092915050565b6000602082019050818103600083015261094181846108d7565b905092915050565b600073ffffffffffffffffffffffffffffffffffffffff82169050919050565b600061097482610949565b9050919050565b61098481610969565b82525050565b600060208201905061099f600083018461097b565b92915050565b6000604051905090565b600080fd5b600080fd5b6109c281610969565b81146109cd57600080fd5b50565b6000813590506109df816109b9565b92915050565b6109ee81610795565b81146109f957600080fd5b50565b600081359050610a0b816109e5565b92915050565b60008060408385031215610a2857610a276109af565b5b6000610a36858286016109d0565b9250506020610a47858286016109fc565b9150509250929050565b600080fd5b6000601f19601f8301169050919050565b7f4e487b7100000000000000000000000000000000000000000000000000000000600052604160045260246000fd5b610a9f82610a56565b810181811067ffffffffffffffff82111715610abe57610abd610a67565b5b80604052505050565b6000610ad16109a5565b9050610add8282610a96565b919050565b600067ffffffffffffffff821115610afd57610afc610a67565b5b602082029050602081019050919050565b600080fd5b600a8110610b2057600080fd5b50565b600081359050610b3281610b13565b92915050565b6000610b4b610b4684610ae2565b610ac7565b90508083825260208201905060208402830185811115610b6e57610b6d610b0e565b5b835b81811015610b975780610b838882610b23565b845260208401935050602081019050610b70565b5050509392505050565b600082601f830112610bb657610bb5610a51565b5b8135610bc6848260208601610b38565b91505092915050565b60008060408385031215610be657610be56109af565b5b6000610bf4858286016109fc565b925050602083013567ffffffffffffffff811115610c1557610c146109b4565b5b610c2185828601610ba1565b9150509250929050565b600060208284031215610c4157610c406109af565b5b6000610c4f848285016109fc565b91505092915050565b600060208284031215610c6e57610c6d6109af565b5b6000610c7c848285016109d0565b91505092915050565b600082825260208201905092915050565b7f496e697469616c697a61626c653a20636f6e747261637420697320616c72656160008201527f647920696e697469616c697a6564000000000000000000000000000000000000602082015250565b6000610cf2602e83610c85565b9150610cfd82610c96565b604082019050919050565b60006020820190508181036000830152610d2181610ce5565b9050919050565b6000819050919050565b6000819050919050565b6000610d57610d52610d4d84610d28565b610d32565b610795565b9050919050565b610d6781610d3c565b82525050565b6000602082019050610d826000830184610d5e565b92915050565b7f4f776e61626c653a206e6577206f776e657220697320746865207a65726f206160008201527f6464726573730000000000000000000000000000000000000000000000000000602082015250565b6000610de4602683610c85565b9150610def82610d88565b604082019050919050565b60006020820190508181036000830152610e1381610dd7565b9050919050565b7f4f776e61626c653a2063616c6c6572206973206e6f7420746865206f776e6572600082015250565b6000610e50602083610c85565b9150610e5b82610e1a565b602082019050919050565b60006020820190508181036000830152610e7f81610e43565b905091905056fea26469706673582212204939fae82ca17c5b619a24a6e261f86ff66d98d04e2156f899c977f6498853b864736f6c63430008110033",
  "linkReferences": {},
  "deployedLinkReferences": {}
}